:020000040000fa
:080000000001040000000000f3
:020000040000fa
:04000800f201000001
:020000040000fa
:04000c00f2010000fd
:020000040000fa
:04001000f2010000f9
:020000040000fa
:04001400f2010000f5
:020000040000fa
:04001800f2010000f1
:020000040000fa
:04001c00f2010000ed
:020000040000fa
:04002000f2010000e9
:020000040000fa
:04002400f2010000e5
:020000040000fa
:04002800f2010000e1
:020000040000fa
:04002c00f2010000dd
:020000040000fa
:04003000f2010000d9
:020000040000fa
:04003400c8010000ff
:020000040000fa
:04003800f2010000d1
:020000040000fa
:04003c00f2010000cd
:020000040000fa
:04004000f2010000c9
:020000040000fa
:04004400f2010000c5
:020000040000fa
:04004800f2010000c1
:020000040000fa
:04004c00f2010000bd
:020000040000fa
:04005000f2010000b9
:020000040000fa
:04005400f2010000b5
:020000040000fa
:04005800f2010000b1
:020000040000fa
:04005c00f2010000ad
:020000040000fa
:04006000f2010000a9
:020000040000fa
:04006400f2010000a5
:020000040000fa
:04006800f2010000a1
:020000040000fa
:04006c00f20100009d
:020000040000fa
:04007000f201000099
:020000040000fa
:04007400f201000095
:020000040000fa
:04007800f201000091
:020000040000fa
:04007c00f20100008d
:020000040000fa
:04008000f201000089
:020000040000fa
:04008400f201000085
:020000040000fa
:04008800dc01000097
:020000040000fa
:04008c00f20100007d
:020000040000fa
:04009000f201000079
:020000040000fa
:04009400f201000075
:020000040000fa
:04009800f201000071
:020000040000fa
:04009c00f20100006d
:020000040000fa
:0400a000f201000069
:020000040000fa
:0400a400f201000065
:020000040000fa
:0400a800f201000061
:020000040000fa
:0400ac00f20100005d
:020000040000fa
:0400b000f201000059
:020000040000fa
:0400b400f201000055
:020000040000fa
:0400b800f201000051
:020000040000fa
:0400bc00f20100004d
:020000040000fa
:0400c000f201000049
:020000040000fa
:0400c400f201000045
:020000040000fa
:0400c800f201000041
:020000040000fa
:0400cc00f20100003d
:020000040000fa
:0400d000f201000039
:020000040000fa
:0400d400f201000035
:020000040000fa
:0400d800f201000031
:020000040000fa
:04010800f201000000
:020000040000fa
:04010c00f2010000fc
:020000040000fa
:04011000f2010000f8
:020000040000fa
:04011400f2010000f4
:020000040000fa
:04011800f2010000f0
:020000040000fa
:04011c00f2010000ec
:020000040000fa
:04012000f2010000e8
:020000040000fa
:04012400f2010000e4
:020000040000fa
:04012800f2010000e0
:020000040000fa
:04012c00f2010000dc
:020000040000fa
:04013000f2010000d8
:020000040000fa
:04013400c8010000fe
:020000040000fa
:04013800f2010000d0
:020000040000fa
:04013c00f2010000cc
:020000040000fa
:04014000f2010000c8
:020000040000fa
:04014400f2010000c4
:020000040000fa
:04014800f2010000c0
:020000040000fa
:04014c00f2010000bc
:020000040000fa
:04015000f2010000b8
:020000040000fa
:04015400f2010000b4
:020000040000fa
:04015800f2010000b0
:020000040000fa
:04015c00f2010000ac
:020000040000fa
:04016000f2010000a8
:020000040000fa
:04016400f2010000a4
:020000040000fa
:04016800f2010000a0
:020000040000fa
:04016c00f20100009c
:020000040000fa
:04017000f201000098
:020000040000fa
:04017400f201000094
:020000040000fa
:04017800f201000090
:020000040000fa
:04017c00f20100008c
:020000040000fa
:04018000f201000088
:020000040000fa
:04018400f201000084
:020000040000fa
:04018800dc01000096
:020000040000fa
:04018c00f20100007c
:020000040000fa
:04019000f201000078
:020000040000fa
:04019400f201000074
:020000040000fa
:04019800f201000070
:020000040000fa
:04019c00f20100006c
:020000040000fa
:0401a000f201000068
:020000040000fa
:0401a400f201000064
:020000040000fa
:0401a800f201000060
:020000040000fa
:0401ac00f20100005c
:020000040000fa
:0401b000f201000058
:020000040000fa
:0401b400f201000054
:020000040000fa
:0401b800f201000050
:020000040000fa
:0401bc00f20100004c
:020000040000fa
:0401c000f201000048
:020000040000fa
:0401c400f201000044
:020000040000fa
:0401c800f201000040
:020000040000fa
:0401cc00f20100003c
:020000040000fa
:0401d000f201000038
:020000040000fa
:0401d400f201000034
:020000040000fa
:0401d800f201000030
:020000040000fa
:100200004f8020000eff20000e018800000000003b
:10021000000020000000e000020032000001200089
:100220002002880014000700700007000000e000b2
:1002300003003a00c029200001002000020037001e
:100240000000200001002000810f7000010032003a
:1002500014000700000020000000e000020032004f
:1002600000000200000000009002020000000000f8
:100270000040da000000fe004440a9000000200019
:100280000000e0000300320000002000a001880010
:100290004440a800000006008a1f78008b1f7800e9
:1002a0000000060091018800800478000000eb0047
:1002b0001a003700e284440032a0b4009905ba0065
:1002c000e284440032a0b4009906ba00e2844400fb
:1002d00032a0b4000006eb00476fde00fd07b2005d
:1002e000636ce10003003a00ebff07000000eb0045
:1002f0000a003700606ce10004003a00005deb008a
:100300008b05e900fdff3e00040037006168e10055
:10031000010032000086eb000b00070019c7ba008d
:100320001905ba000e04e00003003a000a00e000dc
:10033000e0ff3a0000000600fe07b2009e018800c0
:100340008a047800f5ff3700395dba008b05e900b3
:100350000c003200295dba008b05e900080032006c
:100360000c00e00003003a00e284440032a0b40034
:10037000f5ff370019ddba008b05e900faff3a00f6
:100380008904e800e184440032a0b40000000600c3
:100390003400f800881f780008002000a8018800b9
:1003a0004f0478000000fa008460a9000080fa0081
:1003b0003400f900004006003400f800881f78007f
:1003c00008002000a80188004f0478000000fa000f
:1003d0008700a9001d02a9000080fa003400f9007e
:1003e000004006000040da000000fe0000000500aa
:020000040000fa
:1003f0000000fa0017e2a90000012000f0108800b8
:1004000016c2a90016e2a90016a2a900b110800028
:1004100090ff2f0000806000b01088001602a90035
:10042000c1108000f0f32f0000806000c010880031
:100430008700a9000105800080ff2f000080600078
:100440003000b300000588008f00a80017e2a80064
:100450001942a8000080fa00000006000000fa001f
:10046000c1e1a900c1e1a900010e800030ff2f0009
:10047000008060000020a000000e8800210e800097
:1004800000002800808060000064200001007000ef
:10049000200e8800c901a800c801a800c1e1a80079
:1004a000e0108000b00e8800c1e1a8000080fa00d2
:1004b000000006000000fa000421ef000021ef0018
:1004c00000e22400100888000421a900210880000f
:1004d000f0fc2f00008060000040a0002008880091
:1004e000a1048000f0ff280080806000000026004a
:1004f00001007000a00488008c60a80005e1a8003d
:100500000080fa00000006000000fa00d242a800b5
:10051000d222a900d262a9000080fa0000000600e1
:100520000000fa00f8ff0700e2ff0700cbff07001a
:08053000afff0700ffff3700d9
:020000040000fa
:1005380000080000040000000000000000000000a7
:020000040000fa
:0200000401f009
:04000000f6bf000047
:020000040000fa
:0200000401f009
:04000400ff7f00007a
:020000040000fa
:0200000401f009
:040008007ff900007c
:00000001FF
